{
  "contractName": "SimpleStorage",
  "abi": [
    {
      "constant": true,
      "inputs": [
        {
          "internalType": "string",
          "name": "",
          "type": "string"
        },
        {
          "internalType": "uint256",
          "name": "",
          "type": "uint256"
        }
      ],
      "name": "files",
      "outputs": [
        {
          "internalType": "string",
          "name": "hash",
          "type": "string"
        },
        {
          "internalType": "string",
          "name": "key",
          "type": "string"
        }
      ],
      "payable": false,
      "stateMutability": "view",
      "type": "function"
    },
    {
      "constant": false,
      "inputs": [
        {
          "internalType": "uint256",
          "name": "x",
          "type": "uint256"
        }
      ],
      "name": "set",
      "outputs": [],
      "payable": false,
      "stateMutability": "nonpayable",
      "type": "function"
    },
    {
      "constant": true,
      "inputs": [],
      "name": "get",
      "outputs": [
        {
          "internalType": "uint256",
          "name": "",
          "type": "uint256"
        }
      ],
      "payable": false,
      "stateMutability": "view",
      "type": "function"
    },
    {
      "constant": false,
      "inputs": [
        {
          "internalType": "string",
          "name": "_key",
          "type": "string"
        },
        {
          "internalType": "string",
          "name": "_hash",
          "type": "string"
        }
      ],
      "name": "addfile",
      "outputs": [],
      "payable": false,
      "stateMutability": "nonpayable",
      "type": "function"
    },
    {
      "constant": true,
      "inputs": [
        {
          "internalType": "string",
          "name": "_key",
          "type": "string"
        },
        {
          "internalType": "uint256",
          "name": "_index",
          "type": "uint256"
        }
      ],
      "name": "getfile",
      "outputs": [
        {
          "internalType": "string",
          "name": "",
          "type": "string"
        }
      ],
      "payable": false,
      "stateMutability": "view",
      "type": "function"
    },
    {
      "constant": true,
      "inputs": [
        {
          "internalType": "string",
          "name": "_key",
          "type": "string"
        }
      ],
      "name": "getlastfile",
      "outputs": [
        {
          "internalType": "string",
          "name": "",
          "type": "string"
        }
      ],
      "payable": false,
      "stateMutability": "view",
      "type": "function"
    },
    {
      "constant": true,
      "inputs": [
        {
          "internalType": "string",
          "name": "_key",
          "type": "string"
        }
      ],
      "name": "getLength",
      "outputs": [
        {
          "internalType": "uint256",
          "name": "",
          "type": "uint256"
        }
      ],
      "payable": false,
      "stateMutability": "view",
      "type": "function"
    }
  ],
  "bytecode": "0x608060405234801561001057600080fd5b50610f1e806100206000396000f3fe608060405234801561001057600080fd5b506004361061007d5760003560e01c80636981b5f41161005b5780636981b5f4146102e35780636d4ce63c146103995780638e058482146103a1578063ddafe7d7146105255761007d565b806336328e9e1461008257806352b81a79146101ad57806360fe47b1146102c6575b600080fd5b6101ab6004803603604081101561009857600080fd5b810190602081018135600160201b8111156100b257600080fd5b8201836020820111156100c457600080fd5b803590602001918460018302840111600160201b831117156100e557600080fd5b91908080601f0160208091040260200160405190810160405280939291908181526020018383808284376000920191909152509295949360208101935035915050600160201b81111561013757600080fd5b82018360208201111561014957600080fd5b803590602001918460018302840111600160201b8311171561016a57600080fd5b91908080601f0160208091040260200160405190810160405280939291908181526020018383808284376000920191909152509295506105cb945050505050565b005b610251600480360360208110156101c357600080fd5b810190602081018135600160201b8111156101dd57600080fd5b8201836020820111156101ef57600080fd5b803590602001918460018302840111600160201b8311171561021057600080fd5b91908080601f0160208091040260200160405190810160405280939291908181526020018383808284376000920191909152509295506109b1945050505050565b6040805160208082528351818301528351919283929083019185019080838360005b8381101561028b578181015183820152602001610273565b50505050905090810190601f1680156102b85780820380516001836020036101000a031916815260200191505b509250505060405180910390f35b6101ab600480360360208110156102dc57600080fd5b5035610be6565b610387600480360360208110156102f957600080fd5b810190602081018135600160201b81111561031357600080fd5b82018360208201111561032557600080fd5b803590602001918460018302840111600160201b8311171561034657600080fd5b91908080601f016020809104026020016040519081016040528093929190818152602001838380828437600092019190915250929550610beb945050505050565b60408051918252519081900360200190f35b610387610c53565b610447600480360360408110156103b757600080fd5b810190602081018135600160201b8111156103d157600080fd5b8201836020820111156103e357600080fd5b803590602001918460018302840111600160201b8311171561040457600080fd5b91908080601f0160208091040260200160405190810160405280939291908181526020018383808284376000920191909152509295505091359250610c5a915050565b604051808060200180602001838103835285818151815260200191508051906020019080838360005b83811015610488578181015183820152602001610470565b50505050905090810190601f1680156104b55780820380516001836020036101000a031916815260200191505b50838103825284518152845160209182019186019080838360005b838110156104e85781810151838201526020016104d0565b50505050905090810190601f1680156105155780820380516001836020036101000a031916815260200191505b5094505050505060405180910390f35b6102516004803603604081101561053b57600080fd5b810190602081018135600160201b81111561055557600080fd5b82018360208201111561056757600080fd5b803590602001918460018302840111600160201b8311171561058857600080fd5b91908080601f0160208091040260200160405190810160405280939291908181526020018383808284376000920191909152509295505091359250610dc0915050565b6000805b6001846040518082805190602001908083835b602083106106015780518252601f1990920191602091820191016105e2565b51815160209384036101000a600019018019909216911617905292019485525060405193849003019092205483101591506108eb905057610640610e37565b6001856040518082805190602001908083835b602083106106725780518252601f199092019160209182019101610653565b51815160209384036101000a60001901801990921691161790529201948552506040519384900301909220805490925084915081106106ad57fe5b60009182526020918290206040805160029384029092018054600181161561010002600019011693909304601f8101859004909402820160609081018252908201848152919384929184919084018282801561074a5780601f1061071f5761010080835404028352916020019161074a565b820191906000526020600020905b81548152906001019060200180831161072d57829003601f168201915b50505050508152602001600182018054600181600116156101000203166002900480601f0160208091040260200160405190810160405280929190818152602001828054600181600116156101000203166002900480156107ec5780601f106107c1576101008083540402835291602001916107ec565b820191906000526020600020905b8154815290600101906020018083116107cf57829003601f168201915b5050505050815250509050836040516020018082805190602001908083835b6020831061082a5780518252601f19909201916020918201910161080b565b6001836020036101000a0380198251168184511680821785525050505050509050019150506040516020818303038152906040528051906020012081600001516040516020018082805190602001908083835b6020831061089c5780518252601f19909201916020918201910161087d565b6001836020036101000a0380198251168184511680821785525050505050509050019150506040516020818303038152906040528051906020012014156108e257600192505b506001016105cf565b50806109ac576001836040518082805190602001908083835b602083106109235780518252601f199092019160209182019101610904565b51815160209384036101000a60001901801990921691161790529201948552506040805194859003820185208582019091528685528482018890528054600181018083556000928352918390208651805193979650600290920201935061098e928492910190610e51565b5060208281015180516109a79260018501920190610e51565b505050505b505050565b60606000600180846040518082805190602001908083835b602083106109e85780518252601f1990920191602091820191016109c9565b51815160209384036101000a6000190180199092169116179052920194855250604051938490030190922054929092039250610a269150610e379050565b6001846040518082805190602001908083835b60208310610a585780518252601f199092019160209182019101610a39565b51815160209384036101000a6000190180199092169116179052920194855250604051938490030190922080549092508491508110610a9357fe5b60009182526020918290206040805160029384029092018054600181161561010002600019011693909304601f81018590049094028201606090810182529082018481529193849291849190840182828015610b305780601f10610b0557610100808354040283529160200191610b30565b820191906000526020600020905b815481529060010190602001808311610b1357829003601f168201915b50505050508152602001600182018054600181600116156101000203166002900480601f016020809104026020016040519081016040528092919081815260200182805460018160011615610100020316600290048015610bd25780601f10610ba757610100808354040283529160200191610bd2565b820191906000526020600020905b815481529060010190602001808311610bb557829003601f168201915b505050919092525050905195945050505050565b600055565b60006001826040518082805190602001908083835b60208310610c1f5780518252601f199092019160209182019101610c00565b51815160209384036101000a6000190180199092169116179052920194855250604051938490030190922054949350505050565b6000545b90565b81516020818401810180516001825292820191850191909120919052805482908110610c8257fe5b60009182526020918290206002918202018054604080516001831615610100026000190190921693909304601f810185900485028201850190935282815290945092508391830182828015610d185780601f10610ced57610100808354040283529160200191610d18565b820191906000526020600020905b815481529060010190602001808311610cfb57829003601f168201915b505050505090806001018054600181600116156101000203166002900480601f016020809104026020016040519081016040528092919081815260200182805460018160011615610100020316600290048015610db65780601f10610d8b57610100808354040283529160200191610db6565b820191906000526020600020905b815481529060010190602001808311610d9957829003601f168201915b5050505050905082565b6060610dca610e37565b6001846040518082805190602001908083835b60208310610dfc5780518252601f199092019160209182019101610ddd565b51815160209384036101000a6000190180199092169116179052920194855250604051938490030190922080549092508591508110610a9357fe5b604051806040016040528060608152602001606081525090565b828054600181600116156101000203166002900490600052602060002090601f016020900481019282601f10610e9257805160ff1916838001178555610ebf565b82800160010185558215610ebf579182015b82811115610ebf578251825591602001919060010190610ea4565b50610ecb929150610ecf565b5090565b610c5791905b80821115610ecb5760008155600101610ed556fea265627a7a723158205fef49fd128491b7c02d735c39957e285d2d51c659f00e8cd5f510b63119771a64736f6c63430005100032",
  "source": "// SPDX-License-Identifier: MIT\r\npragma solidity >=0.4.21 <0.7.0;\r\n\r\n// contract SimpleStorage {\r\n// uint256 storedData;\r\n\r\n//     // struct file {\r\n//     //     string hash;\r\n//     // }\r\n\r\n//     string hash;\r\n\r\n// function set(uint256 x) public {\r\n//     storedData = x;\r\n// }\r\n\r\n// function get() public view returns (uint256) {\r\n//     return storedData;\r\n// }\r\n\r\n//     // mapping(address => file[]) files;\r\n\r\n//     // function addfile(string memory _hash) public returns (address) {\r\n//     //     files[msg.sender].push(file({hash: _hash}));\r\n//     // }\r\n\r\n//     function addfile(string memory _hash) public {\r\n//         hash = _hash;\r\n//     }\r\n\r\n//     // function getfile(address addr, uint256 _index)\r\n//     //     public\r\n//     //     view\r\n//     //     returns (string memory)\r\n//     // {\r\n//     //     file memory file_instance = files[addr][_index];\r\n//     //     return (file_instance.hash);\r\n//     // }\r\n\r\n//     function getfile() public view returns (string memory) {\r\n//         return hash;\r\n//     }\r\n\r\n//     // function getLength() public view returns (uint256) {\r\n//     //     return files[msg.sender].length;\r\n//     // }\r\n// }\r\n\r\ncontract SimpleStorage {\r\n    uint256 storedData;\r\n\r\n    function set(uint256 x) public {\r\n        storedData = x;\r\n    }\r\n\r\n    function get() public view returns (uint256) {\r\n        return storedData;\r\n    }\r\n\r\n    struct file {\r\n        string hash;\r\n        string key;\r\n    }\r\n\r\n    mapping(string => file[]) public files;\r\n\r\n    function addfile(string memory _key, string memory _hash) public {\r\n        bool isPartOf = false;\r\n\r\n        for (uint256 j = 0; j < files[_key].length; j++) {\r\n            file memory file_instance = files[_key][j];\r\n\r\n            if (\r\n                keccak256(abi.encodePacked(file_instance.hash)) ==\r\n                keccak256(abi.encodePacked(_hash))\r\n            ) {\r\n                isPartOf = true;\r\n            }\r\n        }\r\n\r\n        if (!isPartOf) {\r\n            files[_key].push(file({hash: _hash, key: _key}));\r\n        }\r\n    }\r\n\r\n    function getfile(string memory _key, uint256 _index)\r\n        public\r\n        view\r\n        returns (string memory)\r\n    {\r\n        file memory file_instance = files[_key][_index];\r\n        return (file_instance.hash);\r\n    }\r\n\r\n    function getlastfile(string memory _key)\r\n        public\r\n        view\r\n        returns (string memory)\r\n    {\r\n        uint256 new_index = files[_key].length - 1;\r\n        file memory file_instance = files[_key][new_index];\r\n        return (file_instance.hash);\r\n    }\r\n\r\n    function getLength(string memory _key) public view returns (uint256) {\r\n        return files[_key].length;\r\n    }\r\n}\r\n",
  "sourcePath": "C:/Users/Kelvin/Documents/GitHub/Ethereum DApps/truffle-react-box/contracts/SimpleStorage.sol",
  "compiler": {
    "name": "solc",
    "version": "0.5.16+commit.9c3226ce.Emscripten.clang"
  },
  "schemaVersion": "3.2.3",
  "updatedAt": "2020-09-05T05:00:41.436Z",
  "networkType": "ethereum",
  "devdoc": {
    "methods": {}
  },
  "userdoc": {
    "methods": {}
  }
}