{
  "contractName": "SimpleStorage",
  "abi": [
    {
      "constant": false,
      "inputs": [
        {
          "internalType": "uint256",
          "name": "x",
          "type": "uint256"
        }
      ],
      "name": "set",
      "outputs": [],
      "payable": false,
      "stateMutability": "nonpayable",
      "type": "function"
    },
    {
      "constant": true,
      "inputs": [],
      "name": "get",
      "outputs": [
        {
          "internalType": "uint256",
          "name": "",
          "type": "uint256"
        }
      ],
      "payable": false,
      "stateMutability": "view",
      "type": "function"
    },
    {
      "constant": false,
      "inputs": [
        {
          "internalType": "string",
          "name": "_hash",
          "type": "string"
        }
      ],
      "name": "addfile",
      "outputs": [],
      "payable": false,
      "stateMutability": "nonpayable",
      "type": "function"
    },
    {
      "constant": true,
      "inputs": [
        {
          "internalType": "uint256",
          "name": "_index",
          "type": "uint256"
        }
      ],
      "name": "getfile",
      "outputs": [
        {
          "internalType": "string",
          "name": "",
          "type": "string"
        }
      ],
      "payable": false,
      "stateMutability": "view",
      "type": "function"
    },
    {
      "constant": true,
      "inputs": [],
      "name": "getLength",
      "outputs": [
        {
          "internalType": "uint256",
          "name": "",
          "type": "uint256"
        }
      ],
      "payable": false,
      "stateMutability": "view",
      "type": "function"
    }
  ],
  "bytecode": "0x608060405234801561001057600080fd5b506103f1806100206000396000f3fe608060405234801561001057600080fd5b50600436106100575760003560e01c806347621d061461005c57806360fe47b1146101045780636d4ce63c14610121578063be1c766b1461013b578063fa33a6dd14610143575b600080fd5b6101026004803603602081101561007257600080fd5b81019060208101813564010000000081111561008d57600080fd5b82018360208201111561009f57600080fd5b803590602001918460018302840111640100000000831117156100c157600080fd5b91908080601f0160208091040260200160405190810160405280939291908181526020018383808284376000920191909152509295506101d5945050505050565b005b6101026004803603602081101561011a57600080fd5b5035610222565b610129610227565b60408051918252519081900360200190f35b61012961022e565b6101606004803603602081101561015957600080fd5b5035610241565b6040805160208082528351818301528351919283929083019185019080838360005b8381101561019a578181015183820152602001610182565b50505050905090810190601f1680156101c75780820380516001836020036101000a031916815260200191505b509250505060405180910390f35b3360009081526001602081815260408084208151808401909252858252805493840180825590855293829020815180519294919091019261021b92849290910190610311565b5050505050565b600055565b6000545b90565b3360009081526001602052604090205490565b606061024b61038f565b33600090815260016020526040902080548490811061026657fe5b60009182526020918290206040805192909101805460026001821615610100026000190190911604601f81018590048502840183018352938301848152929390928492909184918401828280156102fe5780601f106102d3576101008083540402835291602001916102fe565b820191906000526020600020905b8154815290600101906020018083116102e157829003601f168201915b5050509190925250509051949350505050565b828054600181600116156101000203166002900490600052602060002090601f016020900481019282601f1061035257805160ff191683800117855561037f565b8280016001018555821561037f579182015b8281111561037f578251825591602001919060010190610364565b5061038b9291506103a2565b5090565b6040518060200160405280606081525090565b61022b91905b8082111561038b57600081556001016103a856fea265627a7a72315820a176968fe570f20420634f0d2a3cc9c2f60738897e1dcac8da3d6271a4b737fe64736f6c63430005100032",
  "source": "// SPDX-License-Identifier: MIT\npragma solidity >=0.4.21 <0.7.0;\n\ncontract SimpleStorage {\n    uint256 storedData;\n\n    struct file {\n        string hash;\n    }\n\n    function set(uint256 x) public {\n        storedData = x;\n    }\n\n    function get() public view returns (uint256) {\n        return storedData;\n    }\n\n    mapping(address => file[]) files;\n\n    function addfile(string memory _hash) public {\n        files[msg.sender].push(file({hash: _hash}));\n    }\n\n    function getfile(uint256 _index) public view returns (string memory) {\n        file memory file_instance = files[msg.sender][_index];\n        return (file_instance.hash);\n    }\n\n    function getLength() public view returns (uint256) {\n        return files[msg.sender].length;\n    }\n}\n",
  "sourcePath": "C:/Users/Kelvin/Documents/GitHub/Ethereum DApps/truffle-react-box/contracts/SimpleStorage.sol",
  "compiler": {
    "name": "solc",
    "version": "0.5.16+commit.9c3226ce.Emscripten.clang"
  },
  "schemaVersion": "3.2.3",
  "updatedAt": "2020-08-29T06:55:47.765Z",
  "networkType": "ethereum",
  "devdoc": {
    "methods": {}
  },
  "userdoc": {
    "methods": {}
  }
}