{
  "contractName": "SimpleStorage",
  "abi": [
    {
      "constant": false,
      "inputs": [
        {
          "internalType": "uint256",
          "name": "x",
          "type": "uint256"
        }
      ],
      "name": "set",
      "outputs": [],
      "payable": false,
      "stateMutability": "nonpayable",
      "type": "function"
    },
    {
      "constant": true,
      "inputs": [],
      "name": "get",
      "outputs": [
        {
          "internalType": "uint256",
          "name": "",
          "type": "uint256"
        }
      ],
      "payable": false,
      "stateMutability": "view",
      "type": "function"
    },
    {
      "constant": false,
      "inputs": [
        {
          "internalType": "string",
          "name": "_hash",
          "type": "string"
        }
      ],
      "name": "addfile",
      "outputs": [],
      "payable": false,
      "stateMutability": "nonpayable",
      "type": "function"
    },
    {
      "constant": true,
      "inputs": [],
      "name": "getfile",
      "outputs": [
        {
          "internalType": "string",
          "name": "",
          "type": "string"
        }
      ],
      "payable": false,
      "stateMutability": "view",
      "type": "function"
    }
  ],
  "bytecode": "0x608060405234801561001057600080fd5b50610332806100206000396000f3fe608060405234801561001057600080fd5b506004361061004c5760003560e01c8063328240761461005157806347621d06146100ce57806360fe47b1146101765780636d4ce63c14610193575b600080fd5b6100596101ad565b6040805160208082528351818301528351919283929083019185019080838360005b8381101561009357818101518382015260200161007b565b50505050905090810190601f1680156100c05780820380516001836020036101000a031916815260200191505b509250505060405180910390f35b610174600480360360208110156100e457600080fd5b8101906020810181356401000000008111156100ff57600080fd5b82018360208201111561011157600080fd5b8035906020019184600183028401116401000000008311171561013357600080fd5b91908080601f016020809104026020016040519081016040528093929190818152602001838380828437600092019190915250929550610243945050505050565b005b6101746004803603602081101561018c57600080fd5b503561025a565b61019b61025f565b60408051918252519081900360200190f35b60018054604080516020601f600260001961010087891615020190951694909404938401819004810282018101909252828152606093909290918301828280156102385780601f1061020d57610100808354040283529160200191610238565b820191906000526020600020905b81548152906001019060200180831161021b57829003601f168201915b505050505090505b90565b8051610256906001906020840190610265565b5050565b600055565b60005490565b828054600181600116156101000203166002900490600052602060002090601f016020900481019282601f106102a657805160ff19168380011785556102d3565b828001600101855582156102d3579182015b828111156102d35782518255916020019190600101906102b8565b506102df9291506102e3565b5090565b61024091905b808211156102df57600081556001016102e956fea265627a7a72315820a8c8aeb7ab7381191f7e63b3078b388ee75988513cb0dc762a0d6a748a5718a564736f6c63430005100032",
  "source": "// SPDX-License-Identifier: MIT\npragma solidity >=0.4.21 <0.7.0;\n\ncontract SimpleStorage {\n    uint256 storedData;\n\n    // struct file {\n    //     string hash;\n    // }\n\n    string hash;\n\n    function set(uint256 x) public {\n        storedData = x;\n    }\n\n    function get() public view returns (uint256) {\n        return storedData;\n    }\n\n    // mapping(address => file[]) files;\n\n    // function addfile(string memory _hash) public returns (address) {\n    //     files[msg.sender].push(file({hash: _hash}));\n    // }\n\n    function addfile(string memory _hash) public {\n        hash = _hash;\n    }\n\n    // function getfile(address addr, uint256 _index)\n    //     public\n    //     view\n    //     returns (string memory)\n    // {\n    //     file memory file_instance = files[addr][_index];\n    //     return (file_instance.hash);\n    // }\n\n    function getfile() public view returns (string memory) {\n        return hash;\n    }\n\n    // function getLength() public view returns (uint256) {\n    //     return files[msg.sender].length;\n    // }\n}\n",
  "sourcePath": "C:/Users/Kelvin/Documents/GitHub/Ethereum DApps/truffle-react-box/contracts/SimpleStorage.sol",
  "compiler": {
    "name": "solc",
    "version": "0.5.16+commit.9c3226ce.Emscripten.clang"
  },
  "schemaVersion": "3.2.3",
  "updatedAt": "2020-09-01T08:23:18.218Z",
  "networkType": "ethereum",
  "devdoc": {
    "methods": {}
  },
  "userdoc": {
    "methods": {}
  }
}